{"abi":[{"type":"function","name":"Verify","inputs":[{"name":"proof","type":"uint256[8]","internalType":"uint256[8]"},{"name":"input","type":"uint256[2]","internalType":"uint256[2]"}],"outputs":[],"stateMutability":"view"},{"type":"function","name":"compressProof","inputs":[{"name":"proof","type":"uint256[8]","internalType":"uint256[8]"}],"outputs":[{"name":"compressed","type":"uint256[4]","internalType":"uint256[4]"}],"stateMutability":"view"},{"type":"function","name":"verifyCompressedProof","inputs":[{"name":"compressedProof","type":"uint256[4]","internalType":"uint256[4]"},{"name":"input","type":"uint256[2]","internalType":"uint256[2]"}],"outputs":[],"stateMutability":"view"},{"type":"error","name":"ProofInvalid","inputs":[]},{"type":"error","name":"PublicInputNotInField","inputs":[]}],"bytecode":{"object":"0x608060405234801561000f575f80fd5b506112fa8061001d5f395ff3fe608060405234801561000f575f80fd5b506004361061003f575f3560e01c806344f6369214610043578063eddf243c1461006c578063f11817b214610081575b5f80fd5b6100566100513660046111a2565b610094565b60405161006391906111c4565b60405180910390f35b61007f61007a366004611204565b6100f1565b005b61007f61008f366004611239565b61036e565b61009c611136565b6100af82358360015b6020020135610687565b81526100cd6060830135604084013560a08501356080860135610774565b602083015260408201526100e760c08301358360076100a5565b6060820152919050565b5f806100fc83610a4d565b915091505f6040516101008682377f262eabe81511aa8e3034cbd75d42e708aa4ed80303fb0e4fb90cd0ff6e9092136101008201527f2b65c9ae2605f3ef5540d3a64503c84fe5e1d9ec6eb1bd3a906bbc80830e8e546101208201527f1b02985153a1b779a456c3c65bee53bd53efcceec10a7f53be8faa0bd6c8920e6101408201527f1f9334fa2556619b130c61d83ed55c12e450f8f5c542a139c9726cd310ae15476101608201527f2d4d9aa7e302d9df41749d5507949d05dbea33fbb16c643b22f599a2be6df2e26101808201527f14bedd503c37ceb061d8ec60209fe345ce89830a19230301f076caff004d19266101a08201527f0967032fcbf776d1afc985f88877f182d38480a653f2decaa9794cbc3bf3060c6101c08201527f0e187847ad4c798374d0d6732bf501847dd68bc0e071241e0213bc7fc13db7ab6101e08201527e1752a100a72fdf1e5a5d6ea841cc20ec838bccfcf7bd559e79f1c9c759b6a06102008201527f192a8cc13cd9f762871f21e43451c6ca9eeab2cb2987c4e366a185c25dac2e7f61022082015283610240820152826102608201527f198e9393920d483a7260bfb731fb5d25f1aa493335a9e71297e485b7aef312c26102808201527f1800deef121f1e76426a00665e5c4479674322d4f75edadd46debd5cd992f6ed6102a08201527f275dc4a288d1afb3cbb1ac09187524c7db36395df7be3b99e673b13a075a65ec6102c08201527f1d9befcd05a5323e6da4d435f3b617cdb3af83285c2df711ef39c01571827f9d6102e08201526020816103008360085afa90511690508061036757604051631ff3747d60e21b815260040160405180910390fd5b5050505050565b610376611154565b5f8061038885825b6020020135610c05565b90925090505f8080806103a360408a013560208b0135610ca3565b929650909450925090505f806103ba8b600361037e565b915091505f806103c98c610a4d565b8b8d5260208d018b905260408d0189905260608d018a905260808d0187905260a08d0188905260c08d0186905260e08d018590527f262eabe81511aa8e3034cbd75d42e708aa4ed80303fb0e4fb90cd0ff6e9092136101008e01527f2b65c9ae2605f3ef5540d3a64503c84fe5e1d9ec6eb1bd3a906bbc80830e8e546101208e01527f1b02985153a1b779a456c3c65bee53bd53efcceec10a7f53be8faa0bd6c8920e6101408e01527f1f9334fa2556619b130c61d83ed55c12e450f8f5c542a139c9726cd310ae15476101608e01527f2d4d9aa7e302d9df41749d5507949d05dbea33fbb16c643b22f599a2be6df2e26101808e01527f14bedd503c37ceb061d8ec60209fe345ce89830a19230301f076caff004d19266101a08e01527f0967032fcbf776d1afc985f88877f182d38480a653f2decaa9794cbc3bf3060c6101c08e01527f0e187847ad4c798374d0d6732bf501847dd68bc0e071241e0213bc7fc13db7ab6101e08e01527e1752a100a72fdf1e5a5d6ea841cc20ec838bccfcf7bd559e79f1c9c759b6a06102008e01527f192a8cc13cd9f762871f21e43451c6ca9eeab2cb2987c4e366a185c25dac2e7f6102208e01526102408d018290526102608d018190527f198e9393920d483a7260bfb731fb5d25f1aa493335a9e71297e485b7aef312c26102808e01527f1800deef121f1e76426a00665e5c4479674322d4f75edadd46debd5cd992f6ed6102a08e01527f275dc4a288d1afb3cbb1ac09187524c7db36395df7be3b99e673b13a075a65ec6102c08e01527f1d9befcd05a5323e6da4d435f3b617cdb3af83285c2df711ef39c01571827f9d6102e08e015290925090505f61063c611173565b6020816103008f60085afa915081158061065857508051600114155b1561067657604051631ff3747d60e21b815260040160405180910390fd5b505050505050505050505050505050565b5f5f805160206112a5833981519152831015806106b157505f805160206112a58339815191528210155b156106cf57604051631ff3747d60e21b815260040160405180910390fd5b821580156106db575081155b156106e757505f61076e565b5f6107225f805160206112a583398151915260035f805160206112a5833981519152875f805160206112a5833981519152898a090908610e77565b9050808303610737575050600182901b61076e565b61074081610ed9565b8303610753575050600182811b1761076e565b604051631ff3747d60e21b815260040160405180910390fd5b505b92915050565b5f805f805160206112a58339815191528610158061079f57505f805160206112a58339815191528510155b806107b757505f805160206112a58339815191528410155b806107cf57505f805160206112a58339815191528310155b156107ed57604051631ff3747d60e21b815260040160405180910390fd5b828486881717175f0361080457505f905080610a44565b5f80805f805160206112a583398151915261082d60035f805160206112a5833981519152611285565b5f805160206112a58339815191528a8c090990505f5f805160206112a58339815191528a5f805160206112a58339815191528c8d090990505f5f805160206112a58339815191528a5f805160206112a58339815191528c8d090990505f805160206112a5833981519152805f805160206112a58339815191528c860984087f2b149d40ceb8aaae81be18991be06ac3b5b4c5e559dbefa33267e6dc24a138e508945061091b5f805160206112a5833981519152805f805160206112a58339815191528e870984087f2fcd3ac2a640a154eb23960892a85a68f031ca0c8344b23a577dcf1052b9e77508610ed9565b93505050505f806109685f805160206112a58339815191528061094057610940611271565b5f805160206112a58339815191528586095f805160206112a583398151915287880908610e77565b90506109b35f805160206112a58339815191527f183227397098d014dc2822db40c0ac2ecbc0b548b438e5469e10460b6c3e7ea45f805160206112a583398151915284880809610ef1565b159150506109c2838383610f39565b909350915086831480156109d557508186145b156109fd57806109e5575f6109e8565b60025b60ff1660028a901b175f179450879350610a40565b610a0683610ed9565b87148015610a1b5750610a1882610ed9565b86145b156107535780610a2b575f610a2e565b60025b60ff1660028a901b1760011794508793505b5050505b94509492505050565b5f805f60019050604051604081015f7f0ed6e0c13f353262ae2dbbe49ce6a0b67576d38aaf5958564be7648356830ef783527f28200d54013565dca196841d0a3cd7a5f67531f9748772f553e1e9845f6c094960208401527f1b611b8f696f28ffb6250c7ffac66efbd638d97f0d6c843c23691c3af532c9e382527f248c1033bd73c4ff820d480a37b39ca6ef178543c5c9190459e8cfe36c48e51a6020830152863590508060408301527f30644e72e131a029b85045b68181585d2833e84879b9709143e1f593f000000181108416935060408260608460075afa8416935060408360808560065afa841693507f2974086bde6c91267b201137cfe6ee8cd50ff0a3da861e808503e7df4da87b8d82527f040addd35913f11ea6846f0d583126bab9e8f8ae69797d4c2c7f195be07854716020830152602087013590508060408301527f30644e72e131a029b85045b68181585d2833e84879b9709143e1f593f00000018110841693505060408160608360075afa831692505060408160808360065afa81516020909201519194509092501680610bff5760405163a54f8e2760e01b815260040160405180910390fd5b50915091565b5f80825f03610c1857505f928392509050565b600183811c9250808416145f805160206112a58339815191528310610c5057604051631ff3747d60e21b815260040160405180910390fd5b610c8a5f805160206112a583398151915260035f805160206112a5833981519152865f805160206112a58339815191528889090908610e77565b91508015610bff57610c9b82610ed9565b915050915091565b5f80808085158015610cb3575084155b15610cc857505f925082915081905080610e6e565b600286811c945085935060018088161490808816145f805160206112a583398151915286101580610d0657505f805160206112a58339815191528510155b15610d2457604051631ff3747d60e21b815260040160405180910390fd5b5f5f805160206112a5833981519152610d4b60035f805160206112a5833981519152611285565b5f805160206112a5833981519152888a090990505f5f805160206112a5833981519152885f805160206112a58339815191528a8b090990505f5f805160206112a5833981519152885f805160206112a58339815191528a8b090990505f805160206112a5833981519152805f805160206112a58339815191528a860984087f2b149d40ceb8aaae81be18991be06ac3b5b4c5e559dbefa33267e6dc24a138e5089650610e395f805160206112a5833981519152805f805160206112a58339815191528c870984087f2fcd3ac2a640a154eb23960892a85a68f031ca0c8344b23a577dcf1052b9e77508610ed9565b9550610e46878786610f39565b90975095508415610e6857610e5a87610ed9565b9650610e6586610ed9565b95505b50505050505b92959194509250565b5f610ea2827f0c19139cb84c680a6e14116da060561765e05aa45a1c72a34f082305b61f3f52611075565b9050815f805160206112a583398151915282830914610ed457604051631ff3747d60e21b815260040160405180910390fd5b919050565b5f805160206112a58339815191529081900681030690565b5f80610f1d837f0c19139cb84c680a6e14116da060561765e05aa45a1c72a34f082305b61f3f52611075565b9050825f805160206112a5833981519152828309149392505050565b5f8080610f685f805160206112a5833981519152808788095f805160206112a5833981519152898a0908610e77565b90508315610f7c57610f7981610ed9565b90505b610fc55f805160206112a58339815191527f183227397098d014dc2822db40c0ac2ecbc0b548b438e5469e10460b6c3e7ea45f805160206112a5833981519152848a0809610e77565b92505f805160206112a5833981519152610fef5f805160206112a5833981519152600286096110d8565b860991505f805160206112a583398151915261101a5f805160206112a5833981519152848509610ed9565b5f805160206112a5833981519152858609088614158061104e57505f805160206112a5833981519152808385096002098514155b1561106c57604051631ff3747d60e21b815260040160405180910390fd5b50935093915050565b5f8060405160208152602080820152602060408201528460608201528360808201525f805160206112a583398151915260a082015260208160c08360055afa9051925090508061076c57604051631ff3747d60e21b815260040160405180910390fd5b5f611103827f30644e72e131a029b85045b68181585d97816a916871ca8d3c208c16d87cfd45611075565b90505f805160206112a5833981519152818309600114610ed457604051631ff3747d60e21b815260040160405180910390fd5b60405180608001604052806004906020820280368337509192915050565b6040518061030001604052806018906020820280368337509192915050565b60405180602001604052806001906020820280368337509192915050565b80610100810183101561076e575f80fd5b5f61010082840312156111b3575f80fd5b6111bd8383611191565b9392505050565b6080810181835f5b60048110156111eb5781518352602092830192909101906001016111cc565b50505092915050565b806040810183101561076e575f80fd5b5f806101408385031215611216575f80fd5b6112208484611191565b91506112308461010085016111f4565b90509250929050565b5f8060c0838503121561124a575f80fd5b608083018481111561125a575f80fd5b83925061126785826111f4565b9150509250929050565b634e487b7160e01b5f52601260045260245ffd5b8181038181111561076e57634e487b7160e01b5f52601160045260245ffdfe30644e72e131a029b85045b68181585d97816a916871ca8d3c208c16d87cfd47a2646970667358221220f2e9a09e0cf1e81909008e5cc00c8f69bc9dac8a6d2c9645fd31b9950147a61564736f6c63430008140033","linkReferences":{}},"methodIdentifiers":{"Verify(uint256[8],uint256[2])":"eddf243c","compressProof(uint256[8])":"44f63692","verifyCompressedProof(uint256[4],uint256[2])":"f11817b2"},"id":24}