{"abi":[{"type":"constructor","inputs":[{"name":"initialOwner","type":"address","internalType":"address"}],"stateMutability":"nonpayable"},{"type":"function","name":"addRoute","inputs":[{"name":"verifier","type":"address","internalType":"address"}],"outputs":[],"stateMutability":"nonpayable"},{"type":"function","name":"freezeRoute","inputs":[{"name":"selector","type":"bytes4","internalType":"bytes4"}],"outputs":[],"stateMutability":"nonpayable"},{"type":"function","name":"owner","inputs":[],"outputs":[{"name":"","type":"address","internalType":"address"}],"stateMutability":"view"},{"type":"function","name":"renounceOwnership","inputs":[],"outputs":[],"stateMutability":"nonpayable"},{"type":"function","name":"routes","inputs":[{"name":"","type":"bytes4","internalType":"bytes4"}],"outputs":[{"name":"verifier","type":"address","internalType":"address"},{"name":"frozen","type":"bool","internalType":"bool"}],"stateMutability":"view"},{"type":"function","name":"transferOwnership","inputs":[{"name":"newOwner","type":"address","internalType":"address"}],"outputs":[],"stateMutability":"nonpayable"},{"type":"function","name":"verifyProof","inputs":[{"name":"programVKey","type":"bytes32","internalType":"bytes32"},{"name":"publicValues","type":"bytes","internalType":"bytes"},{"name":"proofBytes","type":"bytes","internalType":"bytes"}],"outputs":[],"stateMutability":"view"},{"type":"event","name":"OwnershipTransferred","inputs":[{"name":"previousOwner","type":"address","indexed":true,"internalType":"address"},{"name":"newOwner","type":"address","indexed":true,"internalType":"address"}],"anonymous":false},{"type":"event","name":"RouteAdded","inputs":[{"name":"selector","type":"bytes4","indexed":false,"internalType":"bytes4"},{"name":"verifier","type":"address","indexed":false,"internalType":"address"}],"anonymous":false},{"type":"event","name":"RouteFrozen","inputs":[{"name":"selector","type":"bytes4","indexed":false,"internalType":"bytes4"},{"name":"verifier","type":"address","indexed":false,"internalType":"address"}],"anonymous":false},{"type":"error","name":"OwnableInvalidOwner","inputs":[{"name":"owner","type":"address","internalType":"address"}]},{"type":"error","name":"OwnableUnauthorizedAccount","inputs":[{"name":"account","type":"address","internalType":"address"}]},{"type":"error","name":"RouteAlreadyExists","inputs":[{"name":"verifier","type":"address","internalType":"address"}]},{"type":"error","name":"RouteIsFrozen","inputs":[{"name":"selector","type":"bytes4","internalType":"bytes4"}]},{"type":"error","name":"RouteNotFound","inputs":[{"name":"selector","type":"bytes4","internalType":"bytes4"}]},{"type":"error","name":"SelectorCannotBeZero","inputs":[]}],"bytecode":{"object":"0x608060405234801561000f575f80fd5b5060405161088d38038061088d83398101604081905261002e916100bb565b806001600160a01b03811661005c57604051631e4fbdf760e01b81525f600482015260240160405180910390fd5b6100658161006c565b50506100e8565b5f80546001600160a01b038381166001600160a01b0319831681178455604051919092169283917f8be0079c531659141344cd1fd0a4f28419497f9722a3daafe3b4186f6b6457e09190a35050565b5f602082840312156100cb575f80fd5b81516001600160a01b03811681146100e1575f80fd5b9392505050565b610798806100f55f395ff3fe608060405234801561000f575f80fd5b506004361061007a575f3560e01c8063814856f411610058578063814856f4146100f35780638c95ff1e146101065780638da5cb5b14610119578063f2fde38b14610133575f80fd5b806341493c601461007e57806351c7094f14610093578063715018a6146100eb575b5f80fd5b61009161008c36600461059c565b610146565b005b6100c76100a1366004610615565b60016020525f90815260409020546001600160a01b03811690600160a01b900460ff1682565b604080516001600160a01b0390931683529015156020830152015b60405180910390f35b610091610270565b610091610101366004610615565b610283565b610091610114366004610643565b610365565b5f546040516001600160a01b0390911681526020016100e2565b610091610141366004610643565b61049f565b5f6101546004828486610669565b61015d91610690565b6001600160e01b031981165f908152600160209081526040918290208251808401909352546001600160a01b038116808452600160a01b90910460ff16151591830191909152919250906101d5576040516379043bbf60e11b81526001600160e01b0319831660048201526024015b60405180910390fd5b8060200151156102045760405163ebf1082360e01b81526001600160e01b0319831660048201526024016101cc565b805160405163020a49e360e51b81526001600160a01b03909116906341493c609061023b908a908a908a908a908a906004016106f0565b5f6040518083038186803b158015610251575f80fd5b505afa158015610263573d5f803e3d5ffd5b5050505050505050505050565b6102786104dc565b6102815f610508565b565b61028b6104dc565b6001600160e01b031981165f90815260016020526040902080546001600160a01b03166102d7576040516379043bbf60e11b81526001600160e01b0319831660048201526024016101cc565b8054600160a01b900460ff161561030d5760405163ebf1082360e01b81526001600160e01b0319831660048201526024016101cc565b805460ff60a01b198116600160a01b1782556040517f63ad2363b183cb8bb562b9590c5b4428e2a566260df053db156576d3d171438d916103599185916001600160a01b031690610728565b60405180910390a15050565b61036d6104dc565b5f816001600160a01b0316632a5104366040518163ffffffff1660e01b8152600401602060405180830381865afa1580156103aa573d5f803e3d5ffd5b505050506040513d601f19601f820116820180604052508101906103ce919061074b565b90506001600160e01b031981166103f8576040516320acd28b60e01b815260040160405180910390fd5b6001600160e01b031981165f90815260016020526040902080546001600160a01b031615610447578054604051632b87e79760e01b81526001600160a01b0390911660048201526024016101cc565b80546001600160a01b0319166001600160a01b0384161781556040517fcb5cc54fa0fda41744197b286ab4135aec7c322cace32c4f55da723d2eb8eee6906104929084908690610728565b60405180910390a1505050565b6104a76104dc565b6001600160a01b0381166104d057604051631e4fbdf760e01b81525f60048201526024016101cc565b6104d981610508565b50565b5f546001600160a01b031633146102815760405163118cdaa760e01b81523360048201526024016101cc565b5f80546001600160a01b038381166001600160a01b0319831681178455604051919092169283917f8be0079c531659141344cd1fd0a4f28419497f9722a3daafe3b4186f6b6457e09190a35050565b5f8083601f840112610567575f80fd5b50813567ffffffffffffffff81111561057e575f80fd5b602083019150836020828501011115610595575f80fd5b9250929050565b5f805f805f606086880312156105b0575f80fd5b85359450602086013567ffffffffffffffff8111156105cd575f80fd5b6105d988828901610557565b909550935050604086013567ffffffffffffffff8111156105f8575f80fd5b61060488828901610557565b969995985093965092949392505050565b5f60208284031215610625575f80fd5b81356001600160e01b03198116811461063c575f80fd5b9392505050565b5f60208284031215610653575f80fd5b81356001600160a01b038116811461063c575f80fd5b5f8085851115610677575f80fd5b83861115610683575f80fd5b5050820193919092039150565b80356001600160e01b031981169060048410156106c1576001600160e01b0319600485900360031b81901b82161691505b5092915050565b81835281816020850137505f828201602090810191909152601f909101601f19169091010190565b858152606060208201525f6107096060830186886106c8565b828103604084015261071c8185876106c8565b98975050505050505050565b6001600160e01b03199290921682526001600160a01b0316602082015260400190565b5f6020828403121561075b575f80fd5b505191905056fea26469706673582212200bdc3b1a7ba2d73cda6c8752dc6a62fb035b2905944027b440db4ffca192b85964736f6c634300081a0033","linkReferences":{}},"methodIdentifiers":{"addRoute(address)":"8c95ff1e","freezeRoute(bytes4)":"814856f4","owner()":"8da5cb5b","renounceOwnership()":"715018a6","routes(bytes4)":"51c7094f","transferOwnership(address)":"f2fde38b","verifyProof(bytes32,bytes,bytes)":"41493c60"},"id":27}