{"abi":[{"type":"constructor","inputs":[{"name":"_verifier","type":"address","internalType":"address"},{"name":"_committeeProgramVKey","type":"bytes32","internalType":"bytes32"},{"name":"_stepProgramVKey","type":"bytes32","internalType":"bytes32"},{"name":"_finalizedHeaderRoot","type":"bytes32","internalType":"bytes32"},{"name":"_activeCommitteeCommitment","type":"bytes32","internalType":"bytes32"},{"name":"_activeSlot","type":"uint32","internalType":"uint32"}],"stateMutability":"nonpayable"},{"type":"function","name":"activeCommitteeCommitment","inputs":[],"outputs":[{"name":"","type":"bytes32","internalType":"bytes32"}],"stateMutability":"view"},{"type":"function","name":"activeSlot","inputs":[],"outputs":[{"name":"","type":"uint32","internalType":"uint32"}],"stateMutability":"view"},{"type":"function","name":"committeeProgramVKey","inputs":[],"outputs":[{"name":"","type":"bytes32","internalType":"bytes32"}],"stateMutability":"view"},{"type":"function","name":"finalizedHeaderRoot","inputs":[],"outputs":[{"name":"","type":"bytes32","internalType":"bytes32"}],"stateMutability":"view"},{"type":"function","name":"stepProgramVKey","inputs":[],"outputs":[{"name":"","type":"bytes32","internalType":"bytes32"}],"stateMutability":"view"},{"type":"function","name":"verifier","inputs":[],"outputs":[{"name":"","type":"address","internalType":"address"}],"stateMutability":"view"},{"type":"function","name":"verifyRotationProof","inputs":[{"name":"_publicValues","type":"bytes","internalType":"bytes"},{"name":"_proofBytes","type":"bytes","internalType":"bytes"}],"outputs":[{"name":"","type":"uint32","internalType":"uint32"},{"name":"","type":"bytes32","internalType":"bytes32"},{"name":"","type":"bytes32","internalType":"bytes32"},{"name":"","type":"bytes32","internalType":"bytes32"}],"stateMutability":"nonpayable"},{"type":"function","name":"verifyStepProof","inputs":[{"name":"_publicValues","type":"bytes","internalType":"bytes"},{"name":"_proofBytes","type":"bytes","internalType":"bytes"}],"outputs":[{"name":"","type":"uint32","internalType":"uint32"},{"name":"","type":"bytes32","internalType":"bytes32"},{"name":"","type":"bytes32","internalType":"bytes32"}],"stateMutability":"nonpayable"}],"bytecode":{"object":"0x608060405234801561000f575f80fd5b5060405161068a38038061068a83398101604081905261002e9161007e565b5f80546001600160a01b0319166001600160a01b0397909716969096179095556001939093556002919091556003556004556005805463ffffffff191663ffffffff9092169190911790556100ee565b5f805f805f8060c08789031215610093575f80fd5b86516001600160a01b03811681146100a9575f80fd5b6020880151604089015160608a015160808b015160a08c0151949a509298509096509450925063ffffffff811681146100e0575f80fd5b809150509295509295509295565b61058f806100fb5f395ff3fe608060405234801561000f575f80fd5b5060043610610085575f3560e01c80638e8f18cf116100585780638e8f18cf14610112578063becfce161461011b578063c82beafe14610140578063efd8c41a14610175575f80fd5b8063084e8301146100895780631d9b307e146100a55780632b7ac3f3146100ae578063339fb7d1146100d8575b5f80fd5b61009260045481565b6040519081526020015b60405180910390f35b61009260035481565b5f546100c0906001600160a01b031681565b6040516001600160a01b03909116815260200161009c565b6100eb6100e636600461037f565b61017e565b6040805163ffffffff9095168552602085019390935291830152606082015260800161009c565b61009260025481565b60055461012b9063ffffffff1681565b60405163ffffffff909116815260200161009c565b61015361014e36600461037f565b61026e565b6040805163ffffffff909416845260208401929092529082015260600161009c565b61009260015481565b5f805460015460405163020a49e360e51b81528392839283926001600160a01b03909216916341493c60916101bd918c908c908c908c90600401610413565b5f6040518083038186803b1580156101d3575f80fd5b505afa1580156101e5573d5f803e3d5ffd5b505f92506101f8915050888a018a610463565b905080602001516004541461020f5761020f6104d9565b600554815163ffffffff91821691161161022b5761022b6104d9565b80516005805463ffffffff191663ffffffff83161790556060820151600481905560408301516003819055602090930151919b929a509098509650945050505050565b5f805460025460405163020a49e360e51b8152839283926001600160a01b03909116916341493c60916102ab918b908b908b908b90600401610413565b5f6040518083038186803b1580156102c1575f80fd5b505afa1580156102d3573d5f803e3d5ffd5b505f92506102e6915050878901896104ed565b90508060200151600454146102fd576102fd6104d9565b600554815163ffffffff918216911611610319576103196104d9565b60408101516003819055815160209092015191999198509650945050505050565b5f8083601f84011261034a575f80fd5b50813567ffffffffffffffff811115610361575f80fd5b602083019150836020828501011115610378575f80fd5b9250929050565b5f805f8060408587031215610392575f80fd5b843567ffffffffffffffff8111156103a8575f80fd5b6103b48782880161033a565b909550935050602085013567ffffffffffffffff8111156103d3575f80fd5b6103df8782880161033a565b95989497509550505050565b81835281816020850137505f828201602090810191909152601f909101601f19169091010190565b858152606060208201525f61042c6060830186886103eb565b828103604084015261043f8185876103eb565b98975050505050505050565b803563ffffffff8116811461045e575f80fd5b919050565b5f6080828403128015610474575f80fd5b506040516080810167ffffffffffffffff811182821017156104a457634e487b7160e01b5f52604160045260245ffd5b6040526104b08361044b565b815260208381013590820152604080840135908201526060928301359281019290925250919050565b634e487b7160e01b5f52600160045260245ffd5b5f60608284031280156104fe575f80fd5b506040516060810167ffffffffffffffff8111828210171561052e57634e487b7160e01b5f52604160045260245ffd5b60405261053a8361044b565b815260208381013590820152604092830135928101929092525091905056fea2646970667358221220753c7759fbc2fc0848214201320d28cffa909c5ee2bbc51d5ff8265b04e3637b64736f6c634300081a0033","linkReferences":{}},"methodIdentifiers":{"activeCommitteeCommitment()":"084e8301","activeSlot()":"becfce16","committeeProgramVKey()":"efd8c41a","finalizedHeaderRoot()":"1d9b307e","stepProgramVKey()":"8e8f18cf","verifier()":"2b7ac3f3","verifyRotationProof(bytes,bytes)":"339fb7d1","verifyStepProof(bytes,bytes)":"c82beafe"},"id":28}