{"abi":[{"type":"function","name":"VERIFIER_HASH","inputs":[],"outputs":[{"name":"","type":"bytes32","internalType":"bytes32"}],"stateMutability":"pure"},{"type":"function","name":"VERSION","inputs":[],"outputs":[{"name":"","type":"string","internalType":"string"}],"stateMutability":"pure"},{"type":"function","name":"Verify","inputs":[{"name":"proof","type":"uint256[8]","internalType":"uint256[8]"},{"name":"input","type":"uint256[2]","internalType":"uint256[2]"}],"outputs":[],"stateMutability":"view"},{"type":"function","name":"compressProof","inputs":[{"name":"proof","type":"uint256[8]","internalType":"uint256[8]"}],"outputs":[{"name":"compressed","type":"uint256[4]","internalType":"uint256[4]"}],"stateMutability":"view"},{"type":"function","name":"hashPublicValues","inputs":[{"name":"publicValues","type":"bytes","internalType":"bytes"}],"outputs":[{"name":"","type":"bytes32","internalType":"bytes32"}],"stateMutability":"pure"},{"type":"function","name":"verifyCompressedProof","inputs":[{"name":"compressedProof","type":"uint256[4]","internalType":"uint256[4]"},{"name":"input","type":"uint256[2]","internalType":"uint256[2]"}],"outputs":[],"stateMutability":"view"},{"type":"function","name":"verifyProof","inputs":[{"name":"programVKey","type":"bytes32","internalType":"bytes32"},{"name":"publicValues","type":"bytes","internalType":"bytes"},{"name":"proofBytes","type":"bytes","internalType":"bytes"}],"outputs":[],"stateMutability":"view"},{"type":"error","name":"InvalidProof","inputs":[]},{"type":"error","name":"ProofInvalid","inputs":[]},{"type":"error","name":"PublicInputNotInField","inputs":[]},{"type":"error","name":"WrongVerifierSelector","inputs":[{"name":"received","type":"bytes4","internalType":"bytes4"},{"name":"expected","type":"bytes4","internalType":"bytes4"}]}],"bytecode":{"object":"0x608060405234801561000f575f80fd5b506117f68061001d5f395ff3fe608060405234801561000f575f80fd5b506004361061007a575f3560e01c80636b61d8e7116100585780636b61d8e7146100e8578063eddf243c146100fb578063f11817b21461010e578063ffa1ad7414610121575f80fd5b80632a5104361461007e57806341493c60146100b357806344f63692146100c8575b5f80fd5b7f11b6a09d63d255ad425ee3a7f6211d5ec63fbde9805b40551c3136275b6f4eb45b6040519081526020015b60405180910390f35b6100c66100c136600461142f565b61014e565b005b6100db6100d63660046114b4565b61026b565b6040516100aa91906114d6565b6100a06100f6366004611506565b6102c8565b6100c6610109366004611555565b61032d565b6100c661011c36600461158a565b6105aa565b604080518082018252600b81526a76342e302e302d72632e3360a81b602082015290516100aa91906115c2565b5f61015c600482848661160d565b61016591611634565b90507f11b6a09d63d255ad425ee3a7f6211d5ec63fbde9805b40551c3136275b6f4eb46311b6a09d60e01b6001600160e01b03198316146101d15760405163988066a160e01b81526001600160e01b031980841660048301528216602482015260440160405180910390fd5b5f6101dc87876102c8565b90506101e6611371565b888152602081018290525f6101fe866004818a61160d565b81019061020b9190611664565b604051633b77c90f60e21b8152909150309063eddf243c9061023390849086906004016116eb565b5f6040518083038186803b158015610249575f80fd5b505afa15801561025b573d5f803e3d5ffd5b5050505050505050505050505050565b61027361138f565b61028682358360015b60200201356108c3565b81526102a46060830135604084013560a085013560808601356109af565b602083015260408201526102be60c083013583600761027c565b6060820152919050565b5f6001600160fd1b035f1b600284846040516102e5929190611747565b602060405180830381855afa158015610300573d5f803e3d5ffd5b5050506040513d601f19601f820116820180604052508101906103239190611756565b1690505b92915050565b5f8061033883610c88565b915091505f6040516101008682377f262eabe81511aa8e3034cbd75d42e708aa4ed80303fb0e4fb90cd0ff6e9092136101008201527f2b65c9ae2605f3ef5540d3a64503c84fe5e1d9ec6eb1bd3a906bbc80830e8e546101208201527f1b02985153a1b779a456c3c65bee53bd53efcceec10a7f53be8faa0bd6c8920e6101408201527f1f9334fa2556619b130c61d83ed55c12e450f8f5c542a139c9726cd310ae15476101608201527f2d4d9aa7e302d9df41749d5507949d05dbea33fbb16c643b22f599a2be6df2e26101808201527f14bedd503c37ceb061d8ec60209fe345ce89830a19230301f076caff004d19266101a08201527f0967032fcbf776d1afc985f88877f182d38480a653f2decaa9794cbc3bf3060c6101c08201527f0e187847ad4c798374d0d6732bf501847dd68bc0e071241e0213bc7fc13db7ab6101e08201527e1752a100a72fdf1e5a5d6ea841cc20ec838bccfcf7bd559e79f1c9c759b6a06102008201527f192a8cc13cd9f762871f21e43451c6ca9eeab2cb2987c4e366a185c25dac2e7f61022082015283610240820152826102608201527f198e9393920d483a7260bfb731fb5d25f1aa493335a9e71297e485b7aef312c26102808201527f1800deef121f1e76426a00665e5c4479674322d4f75edadd46debd5cd992f6ed6102a08201527f275dc4a288d1afb3cbb1ac09187524c7db36395df7be3b99e673b13a075a65ec6102c08201527f1d9befcd05a5323e6da4d435f3b617cdb3af83285c2df711ef39c01571827f9d6102e08201526020816103008360085afa9051169050806105a357604051631ff3747d60e21b815260040160405180910390fd5b5050505050565b6105b26113ad565b5f806105c485825b6020020135610e40565b90925090505f8080806105df60408a013560208b0135610ede565b929650909450925090505f806105f68b60036105ba565b915091505f806106058c610c88565b8b8d5260208d018b905260408d0189905260608d018a905260808d0187905260a08d0188905260c08d0186905260e08d018590527f262eabe81511aa8e3034cbd75d42e708aa4ed80303fb0e4fb90cd0ff6e9092136101008e01527f2b65c9ae2605f3ef5540d3a64503c84fe5e1d9ec6eb1bd3a906bbc80830e8e546101208e01527f1b02985153a1b779a456c3c65bee53bd53efcceec10a7f53be8faa0bd6c8920e6101408e01527f1f9334fa2556619b130c61d83ed55c12e450f8f5c542a139c9726cd310ae15476101608e01527f2d4d9aa7e302d9df41749d5507949d05dbea33fbb16c643b22f599a2be6df2e26101808e01527f14bedd503c37ceb061d8ec60209fe345ce89830a19230301f076caff004d19266101a08e01527f0967032fcbf776d1afc985f88877f182d38480a653f2decaa9794cbc3bf3060c6101c08e01527f0e187847ad4c798374d0d6732bf501847dd68bc0e071241e0213bc7fc13db7ab6101e08e01527e1752a100a72fdf1e5a5d6ea841cc20ec838bccfcf7bd559e79f1c9c759b6a06102008e01527f192a8cc13cd9f762871f21e43451c6ca9eeab2cb2987c4e366a185c25dac2e7f6102208e01526102408d018290526102608d018190527f198e9393920d483a7260bfb731fb5d25f1aa493335a9e71297e485b7aef312c26102808e01527f1800deef121f1e76426a00665e5c4479674322d4f75edadd46debd5cd992f6ed6102a08e01527f275dc4a288d1afb3cbb1ac09187524c7db36395df7be3b99e673b13a075a65ec6102c08e01527f1d9befcd05a5323e6da4d435f3b617cdb3af83285c2df711ef39c01571827f9d6102e08e015290925090505f6108786113cc565b6020816103008f60085afa915081158061089457508051600114155b156108b257604051631ff3747d60e21b815260040160405180910390fd5b505050505050505050505050505050565b5f5f805160206117a1833981519152831015806108ed57505f805160206117a18339815191528210155b1561090b57604051631ff3747d60e21b815260040160405180910390fd5b82158015610917575081155b1561092357505f610327565b5f61095e5f805160206117a183398151915260035f805160206117a1833981519152875f805160206117a1833981519152898a0909086110b2565b9050808303610973575050600182901b610327565b61097c81611114565b830361098f575050600182811b17610327565b604051631ff3747d60e21b815260040160405180910390fd5b5092915050565b5f805f805160206117a1833981519152861015806109da57505f805160206117a18339815191528510155b806109f257505f805160206117a18339815191528410155b80610a0a57505f805160206117a18339815191528310155b15610a2857604051631ff3747d60e21b815260040160405180910390fd5b828486881717175f03610a3f57505f905080610c7f565b5f80805f805160206117a1833981519152610a6860035f805160206117a1833981519152611781565b5f805160206117a18339815191528a8c090990505f5f805160206117a18339815191528a5f805160206117a18339815191528c8d090990505f5f805160206117a18339815191528a5f805160206117a18339815191528c8d090990505f805160206117a1833981519152805f805160206117a18339815191528c860984087f2b149d40ceb8aaae81be18991be06ac3b5b4c5e559dbefa33267e6dc24a138e5089450610b565f805160206117a1833981519152805f805160206117a18339815191528e870984087f2fcd3ac2a640a154eb23960892a85a68f031ca0c8344b23a577dcf1052b9e77508611114565b93505050505f80610ba35f805160206117a183398151915280610b7b57610b7b61176d565b5f805160206117a18339815191528586095f805160206117a1833981519152878809086110b2565b9050610bee5f805160206117a18339815191527f183227397098d014dc2822db40c0ac2ecbc0b548b438e5469e10460b6c3e7ea45f805160206117a18339815191528488080961112c565b15915050610bfd838383611174565b90935091508683148015610c1057508186145b15610c385780610c20575f610c23565b60025b60ff1660028a901b175f179450879350610c7b565b610c4183611114565b87148015610c565750610c5382611114565b86145b1561098f5780610c66575f610c69565b60025b60ff1660028a901b1760011794508793505b5050505b94509492505050565b5f805f60019050604051604081015f7f0ed6e0c13f353262ae2dbbe49ce6a0b67576d38aaf5958564be7648356830ef783527f28200d54013565dca196841d0a3cd7a5f67531f9748772f553e1e9845f6c094960208401527f1b611b8f696f28ffb6250c7ffac66efbd638d97f0d6c843c23691c3af532c9e382527f248c1033bd73c4ff820d480a37b39ca6ef178543c5c9190459e8cfe36c48e51a6020830152863590508060408301527f30644e72e131a029b85045b68181585d2833e84879b9709143e1f593f000000181108416935060408260608460075afa8416935060408360808560065afa841693507f2974086bde6c91267b201137cfe6ee8cd50ff0a3da861e808503e7df4da87b8d82527f040addd35913f11ea6846f0d583126bab9e8f8ae69797d4c2c7f195be07854716020830152602087013590508060408301527f30644e72e131a029b85045b68181585d2833e84879b9709143e1f593f00000018110841693505060408160608360075afa831692505060408160808360065afa81516020909201519194509092501680610e3a5760405163a54f8e2760e01b815260040160405180910390fd5b50915091565b5f80825f03610e5357505f928392509050565b600183811c9250808416145f805160206117a18339815191528310610e8b57604051631ff3747d60e21b815260040160405180910390fd5b610ec55f805160206117a183398151915260035f805160206117a1833981519152865f805160206117a183398151915288890909086110b2565b91508015610e3a57610ed682611114565b915050915091565b5f80808085158015610eee575084155b15610f0357505f9250829150819050806110a9565b600286811c945085935060018088161490808816145f805160206117a183398151915286101580610f4157505f805160206117a18339815191528510155b15610f5f57604051631ff3747d60e21b815260040160405180910390fd5b5f5f805160206117a1833981519152610f8660035f805160206117a1833981519152611781565b5f805160206117a1833981519152888a090990505f5f805160206117a1833981519152885f805160206117a18339815191528a8b090990505f5f805160206117a1833981519152885f805160206117a18339815191528a8b090990505f805160206117a1833981519152805f805160206117a18339815191528a860984087f2b149d40ceb8aaae81be18991be06ac3b5b4c5e559dbefa33267e6dc24a138e50896506110745f805160206117a1833981519152805f805160206117a18339815191528c870984087f2fcd3ac2a640a154eb23960892a85a68f031ca0c8344b23a577dcf1052b9e77508611114565b9550611081878786611174565b909750955084156110a35761109587611114565b96506110a086611114565b95505b50505050505b92959194509250565b5f6110dd827f0c19139cb84c680a6e14116da060561765e05aa45a1c72a34f082305b61f3f526112b0565b9050815f805160206117a18339815191528283091461110f57604051631ff3747d60e21b815260040160405180910390fd5b919050565b5f805160206117a18339815191529081900681030690565b5f80611158837f0c19139cb84c680a6e14116da060561765e05aa45a1c72a34f082305b61f3f526112b0565b9050825f805160206117a1833981519152828309149392505050565b5f80806111a35f805160206117a1833981519152808788095f805160206117a1833981519152898a09086110b2565b905083156111b7576111b481611114565b90505b6112005f805160206117a18339815191527f183227397098d014dc2822db40c0ac2ecbc0b548b438e5469e10460b6c3e7ea45f805160206117a1833981519152848a08096110b2565b92505f805160206117a183398151915261122a5f805160206117a183398151915260028609611313565b860991505f805160206117a18339815191526112555f805160206117a1833981519152848509611114565b5f805160206117a1833981519152858609088614158061128957505f805160206117a1833981519152808385096002098514155b156112a757604051631ff3747d60e21b815260040160405180910390fd5b50935093915050565b5f8060405160208152602080820152602060408201528460608201528360808201525f805160206117a183398151915260a082015260208160c08360055afa905192509050806109a857604051631ff3747d60e21b815260040160405180910390fd5b5f61133e827f30644e72e131a029b85045b68181585d97816a916871ca8d3c208c16d87cfd456112b0565b90505f805160206117a183398151915281830960011461110f57604051631ff3747d60e21b815260040160405180910390fd5b60405180604001604052806002906020820280368337509192915050565b60405180608001604052806004906020820280368337509192915050565b6040518061030001604052806018906020820280368337509192915050565b60405180602001604052806001906020820280368337509192915050565b5f8083601f8401126113fa575f80fd5b50813567ffffffffffffffff811115611411575f80fd5b602083019150836020828501011115611428575f80fd5b9250929050565b5f805f805f60608688031215611443575f80fd5b85359450602086013567ffffffffffffffff80821115611461575f80fd5b61146d89838a016113ea565b90965094506040880135915080821115611485575f80fd5b50611492888289016113ea565b969995985093965092949392505050565b806101008101831015610327575f80fd5b5f61010082840312156114c5575f80fd5b6114cf83836114a3565b9392505050565b6080810181835f5b60048110156114fd5781518352602092830192909101906001016114de565b50505092915050565b5f8060208385031215611517575f80fd5b823567ffffffffffffffff81111561152d575f80fd5b611539858286016113ea565b90969095509350505050565b8060408101831015610327575f80fd5b5f806101408385031215611567575f80fd5b61157184846114a3565b9150611581846101008501611545565b90509250929050565b5f8060c0838503121561159b575f80fd5b60808301848111156115ab575f80fd5b8392506115b88582611545565b9150509250929050565b5f6020808352835180828501525f5b818110156115ed578581018301518582016040015282016115d1565b505f604082860101526040601f19601f8301168501019250505092915050565b5f808585111561161b575f80fd5b83861115611627575f80fd5b5050820193919092039150565b6001600160e01b0319813581811691600485101561165c5780818660040360031b1b83161692505b505092915050565b5f610100808385031215611676575f80fd5b83601f840112611684575f80fd5b60405181810181811067ffffffffffffffff821117156116b257634e487b7160e01b5f52604160045260245ffd5b6040529083019080858311156116c6575f80fd5b845b838110156116e05780358252602091820191016116c8565b509095945050505050565b610140810181845f5b60088110156117135781518352602092830192909101906001016116f4565b5050506101008201835f5b600281101561173d57815183526020928301929091019060010161171e565b5050509392505050565b818382375f9101908152919050565b5f60208284031215611766575f80fd5b5051919050565b634e487b7160e01b5f52601260045260245ffd5b8181038181111561032757634e487b7160e01b5f52601160045260245ffdfe30644e72e131a029b85045b68181585d97816a916871ca8d3c208c16d87cfd47a264697066735822122036f406771503a373b5f4483dc9dc7c5a5615db58ebd6e56af542b72dd18af56c64736f6c63430008140033","linkReferences":{}},"methodIdentifiers":{"VERIFIER_HASH()":"2a510436","VERSION()":"ffa1ad74","Verify(uint256[8],uint256[2])":"eddf243c","compressProof(uint256[8])":"44f63692","hashPublicValues(bytes)":"6b61d8e7","verifyCompressedProof(uint256[4],uint256[2])":"f11817b2","verifyProof(bytes32,bytes,bytes)":"41493c60"},"id":25}