{"abi":[{"type":"constructor","inputs":[{"name":"_verifier","type":"address","internalType":"address"},{"name":"_committeeProgramVKey","type":"bytes32","internalType":"bytes32"},{"name":"_stepProgramVKey","type":"bytes32","internalType":"bytes32"},{"name":"_finalizedHeaderRoot","type":"bytes32","internalType":"bytes32"},{"name":"_activeCommitteeCommitment","type":"bytes32","internalType":"bytes32"},{"name":"_activeSlot","type":"uint32","internalType":"uint32"}],"stateMutability":"nonpayable"},{"type":"function","name":"activeCommitteeCommitment","inputs":[],"outputs":[{"name":"","type":"bytes32","internalType":"bytes32"}],"stateMutability":"view"},{"type":"function","name":"activeSlot","inputs":[],"outputs":[{"name":"","type":"uint32","internalType":"uint32"}],"stateMutability":"view"},{"type":"function","name":"committeeProgramVKey","inputs":[],"outputs":[{"name":"","type":"bytes32","internalType":"bytes32"}],"stateMutability":"view"},{"type":"function","name":"finalizedHeaderRoot","inputs":[],"outputs":[{"name":"","type":"bytes32","internalType":"bytes32"}],"stateMutability":"view"},{"type":"function","name":"stepProgramVKey","inputs":[],"outputs":[{"name":"","type":"bytes32","internalType":"bytes32"}],"stateMutability":"view"},{"type":"function","name":"verifier","inputs":[],"outputs":[{"name":"","type":"address","internalType":"address"}],"stateMutability":"view"},{"type":"function","name":"verifyRotationProof","inputs":[{"name":"_publicValues","type":"bytes","internalType":"bytes"},{"name":"_proofBytes","type":"bytes","internalType":"bytes"}],"outputs":[],"stateMutability":"nonpayable"},{"type":"function","name":"verifyStepProof","inputs":[{"name":"_publicValues","type":"bytes","internalType":"bytes"},{"name":"_proofBytes","type":"bytes","internalType":"bytes"}],"outputs":[],"stateMutability":"nonpayable"}],"bytecode":{"object":"0x608060405234801561000f575f80fd5b506040516105e43803806105e483398101604081905261002e9161007e565b5f80546001600160a01b0319166001600160a01b0397909716969096179095556001939093556002919091556003556004556005805463ffffffff191663ffffffff9092169190911790556100ed565b5f805f805f8060c08789031215610093575f80fd5b86516001600160a01b03811681146100a9575f80fd5b809650506020870151945060408701519350606087015192506080870151915060a087015163ffffffff811681146100df575f80fd5b809150509295509295509295565b6104ea806100fa5f395ff3fe608060405234801561000f575f80fd5b5060043610610085575f3560e01c80638e8f18cf116100585780638e8f18cf146100ed578063becfce16146100f6578063c82beafe1461011b578063efd8c41a1461012e575f80fd5b8063084e8301146100895780631d9b307e146100a55780632b7ac3f3146100ae578063339fb7d1146100d8575b5f80fd5b61009260045481565b6040519081526020015b60405180910390f35b61009260035481565b5f546100c0906001600160a01b031681565b6040516001600160a01b03909116815260200161009c565b6100eb6100e63660046102f5565b610137565b005b61009260025481565b6005546101069063ffffffff1681565b60405163ffffffff909116815260200161009c565b6100eb6101293660046102f5565b610205565b61009260015481565b5f5460015460405163020a49e360e51b81526001600160a01b03909216916341493c609161016f918890889088908890600401610384565b5f6040518083038186803b158015610185575f80fd5b505afa158015610197573d5f803e3d5ffd5b505f92506101aa915050848601866103d4565b90508060200151600454146101bd575f80fd5b600554815163ffffffff9182169116116101d5575f80fd5b80516005805463ffffffff191663ffffffff90921691909117905560608101516004556040015160035550505050565b5f5460025460405163020a49e360e51b81526001600160a01b03909216916341493c609161023d918890889088908890600401610384565b5f6040518083038186803b158015610253575f80fd5b505afa158015610265573d5f803e3d5ffd5b505f925061027891505084860186610449565b905080602001516004541461028b575f80fd5b600554815163ffffffff9182169116116102a3575f80fd5b6040015160035550505050565b5f8083601f8401126102c0575f80fd5b50813567ffffffffffffffff8111156102d7575f80fd5b6020830191508360208285010111156102ee575f80fd5b9250929050565b5f805f8060408587031215610308575f80fd5b843567ffffffffffffffff8082111561031f575f80fd5b61032b888389016102b0565b90965094506020870135915080821115610343575f80fd5b50610350878288016102b0565b95989497509550505050565b81835281816020850137505f828201602090810191909152601f909101601f19169091010190565b858152606060208201525f61039d60608301868861035c565b82810360408401526103b081858761035c565b98975050505050505050565b803563ffffffff811681146103cf575f80fd5b919050565b5f608082840312156103e4575f80fd5b6040516080810181811067ffffffffffffffff8211171561041357634e487b7160e01b5f52604160045260245ffd5b60405261041f836103bc565b81526020830135602082015260408301356040820152606083013560608201528091505092915050565b5f60608284031215610459575f80fd5b6040516060810181811067ffffffffffffffff8211171561048857634e487b7160e01b5f52604160045260245ffd5b604052610494836103bc565b81526020830135602082015260408301356040820152809150509291505056fea26469706673582212201434e185bb34c1caf2e0e149a08600916618d957a798d4336f1cf11bdc58077d64736f6c63430008140033","linkReferences":{}},"methodIdentifiers":{"activeCommitteeCommitment()":"084e8301","activeSlot()":"becfce16","committeeProgramVKey()":"efd8c41a","finalizedHeaderRoot()":"1d9b307e","stepProgramVKey()":"8e8f18cf","verifier()":"2b7ac3f3","verifyRotationProof(bytes,bytes)":"339fb7d1","verifyStepProof(bytes,bytes)":"c82beafe"},"id":27}